{
  "address": "0x8c0b4f4A3B7d0c4D784a427a3336434b8A22AadC",
  "abi": [
    {
      "inputs": [
        {
          "internalType": "uint256",
          "name": "_entranceFees",
          "type": "uint256"
        },
        {
          "internalType": "address",
          "name": "_vrfCoordinator",
          "type": "address"
        },
        {
          "internalType": "bytes32",
          "name": "_keyHash",
          "type": "bytes32"
        },
        {
          "internalType": "uint64",
          "name": "_subscriptionId",
          "type": "uint64"
        },
        {
          "internalType": "uint32",
          "name": "_callbackGasLimit",
          "type": "uint32"
        },
        {
          "internalType": "uint256",
          "name": "_interval",
          "type": "uint256"
        }
      ],
      "stateMutability": "nonpayable",
      "type": "constructor"
    },
    {
      "inputs": [
        {
          "internalType": "address",
          "name": "have",
          "type": "address"
        },
        {
          "internalType": "address",
          "name": "want",
          "type": "address"
        }
      ],
      "name": "OnlyCoordinatorCanFulfill",
      "type": "error"
    },
    {
      "inputs": [],
      "name": "Raffle__NotWinnerTime",
      "type": "error"
    },
    {
      "inputs": [],
      "name": "Raffle__RaffleNotOpen",
      "type": "error"
    },
    {
      "inputs": [],
      "name": "Raffle__SendMoreToEnterRaffle",
      "type": "error"
    },
    {
      "inputs": [],
      "name": "Raffle__TransactionFailed",
      "type": "error"
    },
    {
      "anonymous": false,
      "inputs": [
        {
          "indexed": true,
          "internalType": "address",
          "name": "_player",
          "type": "address"
        }
      ],
      "name": "EnteredRaffle",
      "type": "event"
    },
    {
      "anonymous": false,
      "inputs": [
        {
          "indexed": true,
          "internalType": "address",
          "name": "_winner",
          "type": "address"
        }
      ],
      "name": "WinnerPicked",
      "type": "event"
    },
    {
      "anonymous": false,
      "inputs": [
        {
          "indexed": true,
          "internalType": "uint256",
          "name": "_requestId",
          "type": "uint256"
        }
      ],
      "name": "WinnerRequested",
      "type": "event"
    },
    {
      "inputs": [
        {
          "internalType": "bytes",
          "name": "",
          "type": "bytes"
        }
      ],
      "name": "checkUpkeep",
      "outputs": [
        {
          "internalType": "bool",
          "name": "upkeepNeeded",
          "type": "bool"
        },
        {
          "internalType": "bytes",
          "name": "",
          "type": "bytes"
        }
      ],
      "stateMutability": "view",
      "type": "function"
    },
    {
      "inputs": [],
      "name": "enterRaffle",
      "outputs": [],
      "stateMutability": "payable",
      "type": "function"
    },
    {
      "inputs": [],
      "name": "getEntranceFees",
      "outputs": [
        {
          "internalType": "uint256",
          "name": "",
          "type": "uint256"
        }
      ],
      "stateMutability": "view",
      "type": "function"
    },
    {
      "inputs": [],
      "name": "getEstimatedTimeLeftInWin",
      "outputs": [
        {
          "internalType": "uint256",
          "name": "",
          "type": "uint256"
        }
      ],
      "stateMutability": "view",
      "type": "function"
    },
    {
      "inputs": [],
      "name": "getInterval",
      "outputs": [
        {
          "internalType": "uint256",
          "name": "",
          "type": "uint256"
        }
      ],
      "stateMutability": "view",
      "type": "function"
    },
    {
      "inputs": [],
      "name": "getLastTimeStamp",
      "outputs": [
        {
          "internalType": "uint256",
          "name": "",
          "type": "uint256"
        }
      ],
      "stateMutability": "view",
      "type": "function"
    },
    {
      "inputs": [],
      "name": "getNumberOfPlayers",
      "outputs": [
        {
          "internalType": "uint256",
          "name": "",
          "type": "uint256"
        }
      ],
      "stateMutability": "view",
      "type": "function"
    },
    {
      "inputs": [
        {
          "internalType": "uint256",
          "name": "_index",
          "type": "uint256"
        }
      ],
      "name": "getPlayer",
      "outputs": [
        {
          "internalType": "address",
          "name": "",
          "type": "address"
        }
      ],
      "stateMutability": "view",
      "type": "function"
    },
    {
      "inputs": [],
      "name": "getRaffleState",
      "outputs": [
        {
          "internalType": "enum Raffle.RaffleState",
          "name": "",
          "type": "uint8"
        }
      ],
      "stateMutability": "view",
      "type": "function"
    },
    {
      "inputs": [],
      "name": "getRecentWinner",
      "outputs": [
        {
          "internalType": "address",
          "name": "",
          "type": "address"
        }
      ],
      "stateMutability": "view",
      "type": "function"
    },
    {
      "inputs": [
        {
          "internalType": "bytes",
          "name": "",
          "type": "bytes"
        }
      ],
      "name": "performUpkeep",
      "outputs": [],
      "stateMutability": "nonpayable",
      "type": "function"
    },
    {
      "inputs": [
        {
          "internalType": "uint256",
          "name": "requestId",
          "type": "uint256"
        },
        {
          "internalType": "uint256[]",
          "name": "randomWords",
          "type": "uint256[]"
        }
      ],
      "name": "rawFulfillRandomWords",
      "outputs": [],
      "stateMutability": "nonpayable",
      "type": "function"
    }
  ],
  "transactionHash": "0xc400fd6de34a6a8f9cf332cd60ec4d2b80db2ac982e790455534e3b17964a24e",
  "args": [
    "10000000000000000",
    "0x8103B0A8A00be2DDC778e6e7eaa21791Cd364625",
    "0x474e34a077df58807dbe9c96d3c009b23b3c6d0cce433e59bbf5b34f823bc56c",
    "8494",
    "500000",
    "30"
  ],
  "numDeployments": 1,
  "solcInputHash": "e0c1dc07b96c45dce968801ec93b2a7c",
  "bytecode": "0x6101606040523480156200001257600080fd5b50604051620017b5380380620017b5833981810160405281019062000038919062000294565b848073ffffffffffffffffffffffffffffffffffffffff1660808173ffffffffffffffffffffffffffffffffffffffff1681525050508561012081815250508473ffffffffffffffffffffffffffffffffffffffff166101008173ffffffffffffffffffffffffffffffffffffffff16815250508360a081815250508267ffffffffffffffff1660c08167ffffffffffffffff16815250508163ffffffff1660e08163ffffffff16815250506000600160146101000a81548160ff021916908360018111156200010d576200010c62000330565b5b0217905550806101408181525050426002819055505050505050506200035f565b600080fd5b6000819050919050565b620001488162000133565b81146200015457600080fd5b50565b60008151905062000168816200013d565b92915050565b600073ffffffffffffffffffffffffffffffffffffffff82169050919050565b60006200019b826200016e565b9050919050565b620001ad816200018e565b8114620001b957600080fd5b50565b600081519050620001cd81620001a2565b92915050565b6000819050919050565b620001e881620001d3565b8114620001f457600080fd5b50565b6000815190506200020881620001dd565b92915050565b600067ffffffffffffffff82169050919050565b6200022d816200020e565b81146200023957600080fd5b50565b6000815190506200024d8162000222565b92915050565b600063ffffffff82169050919050565b6200026e8162000253565b81146200027a57600080fd5b50565b6000815190506200028e8162000263565b92915050565b60008060008060008060c08789031215620002b457620002b36200012e565b5b6000620002c489828a0162000157565b9650506020620002d789828a01620001bc565b9550506040620002ea89828a01620001f7565b9450506060620002fd89828a016200023c565b93505060806200031089828a016200027d565b92505060a06200032389828a0162000157565b9150509295509295509295565b7f4e487b7100000000000000000000000000000000000000000000000000000000600052602160045260246000fd5b60805160a05160c05160e0516101005161012051610140516113df620003d660003960008181610758015281816107ee015261082401526000818161038901526106df01526000610578015260006105f8015260006105d5015260006105b40152600081816102c9015261031d01526113df6000f3fe6080604052600436106100a75760003560e01c80636e04ff0d116100645780636e04ff0d1461018957806391ad27b4146101c7578063b5ecf6dc146101f2578063c1c244e81461021d578063e55ae4e814610248578063fd6673f514610285576100a7565b8063115cbaf5146100ac5780631fe543e3146100d75780632cfcc539146101005780634585e33b1461010a578063473f1ddc146101335780634a26d4f41461015e575b600080fd5b3480156100b857600080fd5b506100c16102b0565b6040516100ce9190610bfe565b60405180910390f35b3480156100e357600080fd5b506100fe60048036038101906100f99190610dbc565b6102c7565b005b610108610387565b005b34801561011657600080fd5b50610131600480360381019061012c9190610e73565b6104f6565b005b34801561013f57600080fd5b506101486106b1565b6040516101559190610f01565b60405180910390f35b34801561016a57600080fd5b506101736106db565b6040516101809190610f2b565b60405180910390f35b34801561019557600080fd5b506101b060048036038101906101ab9190610ffb565b610703565b6040516101be9291906110de565b60405180910390f35b3480156101d357600080fd5b506101dc6107ea565b6040516101e99190610f2b565b60405180910390f35b3480156101fe57600080fd5b50610207610812565b6040516102149190610f2b565b60405180910390f35b34801561022957600080fd5b50610232610852565b60405161023f9190610f2b565b60405180910390f35b34801561025457600080fd5b5061026f600480360381019061026a919061110e565b61085c565b60405161027c9190610f01565b60405180910390f35b34801561029157600080fd5b5061029a6108a3565b6040516102a79190610f2b565b60405180910390f35b6000600160149054906101000a900460ff16905090565b7f000000000000000000000000000000000000000000000000000000000000000073ffffffffffffffffffffffffffffffffffffffff163373ffffffffffffffffffffffffffffffffffffffff161461037957337f00000000000000000000000000000000000000000000000000000000000000006040517f1cf993f400000000000000000000000000000000000000000000000000000000815260040161037092919061113b565b60405180910390fd5b61038382826108af565b5050565b7f00000000000000000000000000000000000000000000000000000000000000003410156103e1576040517f3038c00a00000000000000000000000000000000000000000000000000000000815260040160405180910390fd5b600060018111156103f5576103f4610b87565b5b600160149054906101000a900460ff16600181111561041757610416610b87565b5b1461044e576040517fd24a271400000000000000000000000000000000000000000000000000000000815260040160405180910390fd5b6000339080600181540180825580915050600190039060005260206000200160009091909190916101000a81548173ffffffffffffffffffffffffffffffffffffffff021916908373ffffffffffffffffffffffffffffffffffffffff1602179055503373ffffffffffffffffffffffffffffffffffffffff167f819fbd717c9d0b421352c5116a644ca68ba176960c33f406f08d98a27370ca2760405160405180910390a2565b600061051060405180602001604052806000815250610703565b5090508061054a576040517fdc6da69f00000000000000000000000000000000000000000000000000000000815260040160405180910390fd5b60018060146101000a81548160ff0219169083600181111561056f5761056e610b87565b5b021790555060007f000000000000000000000000000000000000000000000000000000000000000073ffffffffffffffffffffffffffffffffffffffff16635d3b1d307f00000000000000000000000000000000000000000000000000000000000000007f000000000000000000000000000000000000000000000000000000000000000060037f000000000000000000000000000000000000000000000000000000000000000060016040518663ffffffff1660e01b81526004016106399594939291906111dc565b6020604051808303816000875af1158015610658573d6000803e3d6000fd5b505050506040513d601f19601f8201168201806040525081019061067c9190611244565b9050807f4c01f12e9bd0974ebab4e7627b9d3455845461e6259a0c7a436d77a2249d8fc760405160405180910390a250505050565b6000600160009054906101000a900473ffffffffffffffffffffffffffffffffffffffff16905090565b60007f0000000000000000000000000000000000000000000000000000000000000000905090565b6000606060008060008054905011905060008047119050600080600181111561072f5761072e610b87565b5b600160149054906101000a900460ff16600181111561075157610750610b87565b5b14905060007f00000000000000000000000000000000000000000000000000000000000000006002544261078591906112a0565b1190508380156107925750825b801561079b5750815b80156107a45750805b9550856040518060400160405280600381526020017f30783000000000000000000000000000000000000000000000000000000000008152509550955050505050915091565b60007f0000000000000000000000000000000000000000000000000000000000000000905090565b60006002544261082291906112a0565b7f000000000000000000000000000000000000000000000000000000000000000061084d91906112a0565b905090565b6000600254905090565b6000808281548110610871576108706112d4565b5b9060005260206000200160009054906101000a900473ffffffffffffffffffffffffffffffffffffffff169050919050565b60008080549050905090565b60008080549050826000815181106108ca576108c96112d4565b5b60200260200101516108dc9190611332565b905060008082815481106108f3576108f26112d4565b5b9060005260206000200160009054906101000a900473ffffffffffffffffffffffffffffffffffffffff16905080600160006101000a81548173ffffffffffffffffffffffffffffffffffffffff021916908373ffffffffffffffffffffffffffffffffffffffff160217905550600067ffffffffffffffff81111561097c5761097b610c79565b5b6040519080825280602002602001820160405280156109aa5781602001602082028036833780820191505090505b50600090805190602001906109c0929190610ae0565b506000600160146101000a81548160ff021916908360018111156109e7576109e6610b87565b5b02179055504260028190555060008173ffffffffffffffffffffffffffffffffffffffff1647604051610a1990611394565b60006040518083038185875af1925050503d8060008114610a56576040519150601f19603f3d011682016040523d82523d6000602084013e610a5b565b606091505b5050905080610a96576040517f8dea0f0700000000000000000000000000000000000000000000000000000000815260040160405180910390fd5b8173ffffffffffffffffffffffffffffffffffffffff167f5b690ec4a06fe979403046eaeea5b3ce38524683c3001f662c8b5a829632f7df60405160405180910390a25050505050565b828054828255906000526020600020908101928215610b59579160200282015b82811115610b585782518260006101000a81548173ffffffffffffffffffffffffffffffffffffffff021916908373ffffffffffffffffffffffffffffffffffffffff16021790555091602001919060010190610b00565b5b509050610b669190610b6a565b5090565b5b80821115610b83576000816000905550600101610b6b565b5090565b7f4e487b7100000000000000000000000000000000000000000000000000000000600052602160045260246000fd5b60028110610bc757610bc6610b87565b5b50565b6000819050610bd882610bb6565b919050565b6000610be882610bca565b9050919050565b610bf881610bdd565b82525050565b6000602082019050610c136000830184610bef565b92915050565b6000604051905090565b600080fd5b600080fd5b6000819050919050565b610c4081610c2d565b8114610c4b57600080fd5b50565b600081359050610c5d81610c37565b92915050565b600080fd5b6000601f19601f8301169050919050565b7f4e487b7100000000000000000000000000000000000000000000000000000000600052604160045260246000fd5b610cb182610c68565b810181811067ffffffffffffffff82111715610cd057610ccf610c79565b5b80604052505050565b6000610ce3610c19565b9050610cef8282610ca8565b919050565b600067ffffffffffffffff821115610d0f57610d0e610c79565b5b602082029050602081019050919050565b600080fd5b6000610d38610d3384610cf4565b610cd9565b90508083825260208201905060208402830185811115610d5b57610d5a610d20565b5b835b81811015610d845780610d708882610c4e565b845260208401935050602081019050610d5d565b5050509392505050565b600082601f830112610da357610da2610c63565b5b8135610db3848260208601610d25565b91505092915050565b60008060408385031215610dd357610dd2610c23565b5b6000610de185828601610c4e565b925050602083013567ffffffffffffffff811115610e0257610e01610c28565b5b610e0e85828601610d8e565b9150509250929050565b600080fd5b60008083601f840112610e3357610e32610c63565b5b8235905067ffffffffffffffff811115610e5057610e4f610e18565b5b602083019150836001820283011115610e6c57610e6b610d20565b5b9250929050565b60008060208385031215610e8a57610e89610c23565b5b600083013567ffffffffffffffff811115610ea857610ea7610c28565b5b610eb485828601610e1d565b92509250509250929050565b600073ffffffffffffffffffffffffffffffffffffffff82169050919050565b6000610eeb82610ec0565b9050919050565b610efb81610ee0565b82525050565b6000602082019050610f166000830184610ef2565b92915050565b610f2581610c2d565b82525050565b6000602082019050610f406000830184610f1c565b92915050565b600080fd5b600067ffffffffffffffff821115610f6657610f65610c79565b5b610f6f82610c68565b9050602081019050919050565b82818337600083830152505050565b6000610f9e610f9984610f4b565b610cd9565b905082815260208101848484011115610fba57610fb9610f46565b5b610fc5848285610f7c565b509392505050565b600082601f830112610fe257610fe1610c63565b5b8135610ff2848260208601610f8b565b91505092915050565b60006020828403121561101157611010610c23565b5b600082013567ffffffffffffffff81111561102f5761102e610c28565b5b61103b84828501610fcd565b91505092915050565b60008115159050919050565b61105981611044565b82525050565b600081519050919050565b600082825260208201905092915050565b60005b8381101561109957808201518184015260208101905061107e565b60008484015250505050565b60006110b08261105f565b6110ba818561106a565b93506110ca81856020860161107b565b6110d381610c68565b840191505092915050565b60006040820190506110f36000830185611050565b818103602083015261110581846110a5565b90509392505050565b60006020828403121561112457611123610c23565b5b600061113284828501610c4e565b91505092915050565b60006040820190506111506000830185610ef2565b61115d6020830184610ef2565b9392505050565b6000819050919050565b61117781611164565b82525050565b600067ffffffffffffffff82169050919050565b61119a8161117d565b82525050565b600061ffff82169050919050565b6111b7816111a0565b82525050565b600063ffffffff82169050919050565b6111d6816111bd565b82525050565b600060a0820190506111f1600083018861116e565b6111fe6020830187611191565b61120b60408301866111ae565b61121860608301856111cd565b61122560808301846111cd565b9695505050505050565b60008151905061123e81610c37565b92915050565b60006020828403121561125a57611259610c23565b5b60006112688482850161122f565b91505092915050565b7f4e487b7100000000000000000000000000000000000000000000000000000000600052601160045260246000fd5b60006112ab82610c2d565b91506112b683610c2d565b92508282039050818111156112ce576112cd611271565b5b92915050565b7f4e487b7100000000000000000000000000000000000000000000000000000000600052603260045260246000fd5b7f4e487b7100000000000000000000000000000000000000000000000000000000600052601260045260246000fd5b600061133d82610c2d565b915061134883610c2d565b92508261135857611357611303565b5b828206905092915050565b600081905092915050565b50565b600061137e600083611363565b91506113898261136e565b600082019050919050565b600061139f82611371565b915081905091905056fea264697066735822122041e547795766d2740236e04b783ad5fc20b9d96306d222ff0d0f0c27ea3b863c64736f6c63430008130033",
  "devdoc": {
    "kind": "dev",
    "methods": {},
    "version": 1
  },
  "userdoc": {
    "kind": "user",
    "methods": {},
    "version": 1
  },
  "storageLayout": {
    "storage": [
      {
        "astId": 251,
        "contract": "contracts/Raffle.sol:Raffle",
        "label": "s_players",
        "offset": 0,
        "slot": "0",
        "type": "t_array(t_address_payable)dyn_storage"
      },
      {
        "astId": 253,
        "contract": "contracts/Raffle.sol:Raffle",
        "label": "s_recentWinner",
        "offset": 0,
        "slot": "1",
        "type": "t_address"
      },
      {
        "astId": 256,
        "contract": "contracts/Raffle.sol:Raffle",
        "label": "s_raffleState",
        "offset": 20,
        "slot": "1",
        "type": "t_enum(RaffleState)231"
      },
      {
        "astId": 258,
        "contract": "contracts/Raffle.sol:Raffle",
        "label": "s_lastTimeStamp",
        "offset": 0,
        "slot": "2",
        "type": "t_uint256"
      }
    ],
    "types": {
      "t_address": {
        "encoding": "inplace",
        "label": "address",
        "numberOfBytes": "20"
      },
      "t_address_payable": {
        "encoding": "inplace",
        "label": "address payable",
        "numberOfBytes": "20"
      },
      "t_array(t_address_payable)dyn_storage": {
        "base": "t_address_payable",
        "encoding": "dynamic_array",
        "label": "address payable[]",
        "numberOfBytes": "32"
      },
      "t_enum(RaffleState)231": {
        "encoding": "inplace",
        "label": "enum Raffle.RaffleState",
        "numberOfBytes": "1"
      },
      "t_uint256": {
        "encoding": "inplace",
        "label": "uint256",
        "numberOfBytes": "32"
      }
    }
  }
}